:100000001AC033C032C031C030C02FC02EC02DC086
:100010002CC0B2C22AC029C028C027C026C025C013
:1000200024C023C022C021C020C01FC077C251C23B
:100030001CC01BC0110411241FBECFEFCDBFDFE3D6
:10004000DEBF2FE3A0E0BFE301C01D92A335B207DE
:10005000E1F710E0CBE1D0E003C02197FE012BD403
:10006000CA31D107D1F7DED22CC4CACFAF92BF922A
:10007000CF92DF92EF92FF920F931F93CF93DF9374
:100080006C017B018B01040F151FEB015E01AE18A3
:10009000BF08C017D10759F06991D601ED91FC91C5
:1000A0000190F081E02DC6010995892B79F7C501F2
:1000B000DF91CF911F910F91FF90EF90DF90CF9044
:1000C000BF90AF900895FC01508D418D252F30E0F9
:1000D000842F90E0821B930B541710F00F96089515
:1000E00001970895FC0196898789981761F0A7897F
:1000F000AE0FBF2FB11D5B968C9197899F5F9F704C
:10010000978B90E008958FEF9FEF0895FC019689FB
:100110008789981731F08789E80FF11D838D90E06A
:1001200008958FEF9FEF0895FC0196892789892F05
:1001300090E04096821B91098F7099270895CF9384
:10014000DF93EC01E881F9810680F781E02D0995C4
:10015000EC85FD8586818F738683EC85FD858581A1
:100160008F7585838F898E8B1D8ADF91CF9108953E
:10017000CF93DF93FC01908D818DA485B585981375
:1001800009C015968C9115978F7D15968C93DF91EC
:10019000CF910895C18DCE0FDF2FD11D9BA5818DED
:1001A0008F5F8F70818F80E414968C93A485B585C2
:1001B00012969C93908D818D9813E9CF0484F585D8
:1001C000E02D85818F7D8583E2CFDC011C96ED914A
:1001D000FC910FB607FE07C0258125FF04C02091C2
:1001E0001101222319F0248125FDC2CF08950F9318
:1001F0001F93CF93DF93EC0181E08D8B988D898DD8
:10020000981311C0EC85FD85848185FF0CC080E4C6
:100210008483EC85FD85628381E090E0DF91CF915E
:100220001F910F910895062F188D1F5F1F70898DE4
:10023000811303C0CE01C9DFFACFE88DEC0FFD2F8B
:10024000F11D03A7188FEC85FD858581806285836C
:10025000E3CFCF93DF93EC018D89882359F0EC85B0
:10026000FD85858185FD03C0848186FD03C0CE01A7
:10027000ACDFF5CFDF91CF91089581E008952FB7DE
:10028000F8946091063F7091073F8091083F9091EC
:10029000093F2FBF0895DC01ED91FC910088F189A1
:1002A000E02D23E030E00994CF93DF93282F30E056
:1002B000D901A450B7478C918F3FA1F1F901E651C4
:1002C000F747E08190E2E99FF0011124FC5F6111A2
:1002D0002CC086839081892399F4E901C852D747BD
:1002E0009881309721F19F3F11F17096E90FF11D30
:1002F0009FB7F894808161111DC0877F80839FBF65
:100300002A533747F9018081882361F0803151F405
:100310008C91853008F0880F9091010A809589238F
:100320008093010ADF91CF9108958583D3CFF0E0C8
:10033000E0E0DECF8860E2CFCF93DF93823198F4A4
:1003400090E0FC01E450F74720812F3F61F0FC0171
:10035000E651F747E08130E2E39FF0011124FC5FB2
:10036000613021F42183DF91CF910895885297471E
:10037000EC01A881309781F0AF3F71F0CF0140963A
:10038000A80FB92FB11D9FB7F89422838C91886074
:100390008C9325839FBFE7CFB0E0A0E0F4CF7F929E
:1003A0008F929F92AF92BF92CF92DF92EF92FF9285
:1003B0000F931F93CF93DF93EC014A015B01722EE1
:1003C0008D89882339F0E881F9810288F389E02D4D
:1003D000CE0109950C8910E0E12C811488EB980678
:1003E0008BE0A806B10430F0B694A7949794879454
:1003F00032E0E32E1D8AFFB6F894CC84DD8460E001
:1004000074EB84EC94E0A501940133D2F6012087CB
:100410003187EC85FD857782EC85FD858681897F36
:10042000806C8E298683EC85FD8585818068858337
:10043000909101028B89809589239801220F331FA7
:10044000020F131FC00FD11F9889892B80930102BF
:1004500062E08E8571DF61E08F856EDFFFBEDF9128
:10046000CF911F910F91FF90EF90DF90CF90BF90B1
:10047000AF909F908F907F900895EF92FF920F938F
:100480001F93CF93DF9360E08AE00EDFC5E1DFE3E7
:1004900082E1E82E8FE3F82E0A9118E0602F661FA4
:1004A0006627661F8CE000DF000F61E08BE0FCDE5A
:1004B00060E08BE0F9DE115089F7EC16FD0661F77C
:1004C00061E08AE0DF91CF911F910F91FF90EF9053
:1004D000EBCE1F920F920FB60F9211242F933F93E2
:1004E0004F935F936F937F938F939F93AF93BF933C
:1004F000EF93FF9386E19FE33BDEFF91EF91BF9186
:10050000AF919F918F917F916F915F914F913F91AB
:100510002F910F900FBE0F901F9018951F920F9262
:100520000FB60F9211242F938F939F93EF93FF9306
:10053000E091223FF091233F818181FD1BC090819A
:1005400080912C3F8F5F8F7020912D3F821741F05B
:10055000E0912C3FF0E0EA5EF04C938F80932C3FCB
:10056000FF91EF919F918F912F910F900FBE0F9060
:100570001F9018958081F4CF1F920F920FB60F92A3
:1005800011242F933F934F935F936F938F939F9378
:10059000AF93BF938091063F9091073FA091083F92
:1005A000B091093F4091043F5091053F9A01205D71
:1005B0003C4F283E63E0360728F0285E3340019622
:1005C000A11DB11D2093043F3093053F8093063F4A
:1005D0009093073FA093083FB093093F8091003F5D
:1005E0009091013FA091023FB091033F0196A11D60
:1005F000B11D8093003F9093013FA093023FB093C1
:10060000033F82E080930B0ABF91AF919F918F913E
:100610006F915F914F913F912F910F900FBE0F906F
:100620001F90189588ED90E084BF9093610083E55A
:10063000809302068DE08093050680E28093030696
:1006400081E0809300068093030A8EEF8093260A50
:100650008093270A8BE08093000A80910A0A8260C7
:1006600080930A0A78941092513F1092523F40E0D2
:1006700052EC61E070E086E19FE30DDE61E08CE02A
:100680005BDE61E08BE058DE61E08AE055DE1092CF
:10069000153FF3DE81E090E08093513F9093523F0D
:1006A00085E0882E912C02E010E03324339493E00F
:1006B000E92EF12C24E0C22ED12CAA24A394B12C33
:1006C000C091513FD091523FC330D10509F451C080
:1006D000E0F4C130D10509F441C0C230D105A1F721
:1006E00086E19FE3FFDC8093123F3092153FC7DD28
:1006F00060930E3F70930F3F8093103F9093113F94
:10070000E092513FF092523FDBCFC430D10509F463
:1007100079C0C530D105C1F6B2DD2B013C01409254
:100720000A3F50920B3F60920C3F70920D3F86E162
:100730009FE3FADC892B09F44FC086E19FE3D2DC0A
:10074000682F86E19FE353DD9ADD60930E3F70933F
:100750000F3F8093103F9093113FB2CF86E19FE30C
:10076000E3DC892B09F4ACCF0093513F1093523F47
:10077000A7CF85DD2B013C0140920A3F50920B3FF1
:1007800060920C3F70920D3F86E19FE3CDDC892B98
:1007900019F186E19FE3A6DC7090153FE72DF0E0AC
:1007A000EE5EF04C808373947092153F68DD609329
:1007B0000E3F70930F3F8093103F9093113F82E064
:1007C000871528F0C093513FD093523F79CFC09204
:1007D000513FD092523F74CF80910E3F90910F3F86
:1007E000A091103FB091113F4496A11DB11D8415F9
:1007F0009505A605B70508F063CFA092513FB092CA
:10080000523F5ECF3ADE3BDD60930E3F70930F3F69
:100810008093103F9093113F8092513F9092523FAE
:100820004FCFE6E1FFE31282138288EE93E0A0E06F
:10083000B0E084839583A683B78382E199E88083BF
:10084000918380E098E08487958786E0868787E0BB
:100850008787108A8FE0818B8EE0828B81E0838B8B
:10086000148A158A168A178A108E118E87E1828F54
:100870000895A1E21A2EAA1BBB1BFD010DC0AA1FE1
:10088000BB1FEE1FFF1FA217B307E407F50720F0F9
:10089000A21BB30BE40BF50B661F771F881F991F74
:1008A0001A9469F760957095809590959B01AC01BD
:1008B000BD01CF010895EE0FFF1F0590F491E02DCB
:0608C0000994F894FFCF3B
:1008C60010100000000000101010000000000000D2
:1008D60010000405060705040302010000010203D7
:1008E60001020300000000000101010101010202F2
:1008F60002020000000010204080201008040201BF
:10090600010204080204080100000000F700360096
:10091600630029019400720086004B01CF019F00FD
:020926003D0191
:00000001FF
